:020000040800F2
:10000000002800209D0800082D080008330800087B
:10001000390800083F0800084508000800000000F3
:100020000000000000000000000000004B08000875
:100030005708000800000000630800086F08000867
:10004000E5080008E5080008E5080008E5080008DC
:10005000E5080008E5080008E5080008E5080008CC
:10006000E5080008E5080008E5080008E5080008BC
:10007000E5080008E5080008E5080008E5080008AC
:10008000E5080008E5080008E5080008E50800089C
:10009000E5080008E5080008E5080008E50800088C
:1000A000E5080008E5080008E5080008E50800087C
:1000B0007D080008E508000800000000E5080008C9
:1000C000E50800080000000000000000E508000846
:1000D00000000000E5080008E50800080000000036
:1000E000E5080008E5080008E50800080000000031
:1000F0000000000000000000000000000000000000
:0C01000000000000000000005FF808F1A3
:10010C0010B5054C237833B9044B13B10448AFF345
:10011C0000800123237010BD0C00002000000000A3
:10012C00AC1E000808B5034B1BB103490348AFF3E1
:10013C00008008BD0000000010000020AC1E00086C
:10014C0080B500AF00F0CAFB00F00AF800F090F8A0
:10015C0000F042F8014801F0EFFAFEE72C00002015
:10016C0080B590B000AF07F1180328220021184683
:10017C0001F08EFE3B1D00221A605A609A60DA6014
:10018C001A610223BB610123BB621023FB620023B3
:10019C007B6307F11803184600F094FE0346002B0E
:1001AC0001D000F0E3FA0F237B600023BB60002337
:1001BC00FB6000233B6100237B613B1D0021184643
:1001CC0001F000F90346002B01D000F0CFFA00BF7C
:1001DC004037BD4680BD000080B586B000AF07F14A
:1001EC00080300221A605A609A60DA603B460022CB
:1001FC001A605A601D4B4FF080421A601B4B41F63F
:10020C003F725A60194B00229A60184B0922DA602F
:10021C00164B00221A61154B00229A61134801F00B
:10022C003BFA0346002B01D000F0A0FA4FF48053A8
:10023C00BB6007F1080319460C4801F0D1FB0346DB
:10024C00002B01D000F092FA00233B6000237B606E
:10025C003B461946054801F08DFD0346002B01D0A5
:10026C0000F084FA00BF1837BD4680BD2C0000207A
:10027C0080B586B000AF07F1080300221A605A60FF
:10028C009A60DA60214B9B69204A43F00403936126
:10029C001E4B9B6903F004037B607B681B4B9B69C3
:1002AC001A4A43F008039361184B9B6903F0080347
:1002BC003B603B6800224FF47C71154800F0D0FD88
:1002CC0000227F21134800F0CBFD4FF47C73BB6000
:1002DC000123FB6000233B6102237B6107F10803D0
:1002EC0019460B4800F06AFC7F23BB600123FB60BE
:1002FC0000233B6102237B6107F108031946054883
:10030C0000F05CFC00BF1837BD4680BD00100240F9
:10031C0000080140000C014080B582B000AF78604D
:10032C007B68092B00F2808101A252F823F000BFF8
:10033C0065030008AD030008F50300083D04000840
:10034C0085040008CD040008150500085D050008AB
:10035C00A5050008ED05000800220121B54800F0B4
:10036C007FFD00220221B34800F07AFD0022042117
:10037C00B04800F075FD00220821AE4800F070FD79
:10038C0000221021AB4800F06BFD00222021A9486F
:10039C0000F066FD01224021A64800F061FD44E119
:1003AC0001220121A34800F05BFD00220221A1489B
:1003BC0000F056FD002204219E4800F051FD012260
:1003CC0008219C4800F04CFD01221021994800F0B6
:1003DC0047FD01222021974800F042FD01224021D7
:1003EC00944800F03DFD20E100220121914800F0ED
:1003FC0037FD002202218F4800F032FD012204213A
:10040C008C4800F02DFD002208218A4800F028FDC0
:10041C0000221021874800F023FD0122202185486D
:10042C0000F01EFD00224021824800F019FDFCE086
:10043C00002201217F4800F013FD002202217D489B
:10044C0000F00EFD002204217A4800F009FD002284
:10045C000821784800F004FD01221021754800F0B5
:10046C00FFFC01222021734800F0FAFC00224021FD
:10047C00704800F0F5FCD8E0012201216D4800F035
:10048C00EFFC002202216B4800F0EAFC0022042160
:10049C00684800F0E5FC01220821664800F0E0FC09
:1004AC0001221021634800F0DBFC0022202161486E
:1004BC0000F0D6FC002240215E4800F0D1FCB4E0F4
:1004CC00002201215B4800F0CBFC0122022159489B
:1004DC0000F0C6FC00220421564800F0C1FC0022AA
:1004EC000821544800F0BCFC01221021514800F0B6
:1004FC00B7FC002220214F4800F0B2FC0022402122
:10050C004C4800F0ADFC90E000220121494800F07D
:10051C00A7FC01220221474800F0A2FC0022042182
:10052C00444800F09DFC00220821424800F098FC51
:10053C00002210213F4800F093FC002220213D486E
:10054C0000F08EFC002240213A4800F089FC6CE05F
:10055C0000220121374800F083FC0022022135489B
:10056C0000F07EFC00220421324800F079FC0122CC
:10057C000821304800F074FC012210212D4800F0B5
:10058C006FFC012220212B4800F06AFC0122402143
:10059C00284800F065FC48E000220121254800F0C5
:1005AC005FFC00220221234800F05AFC00220421A7
:1005BC00204800F055FC002208211E4800F050FC99
:1005CC00002210211B4800F04BFC0022202119486E
:1005DC0000F046FC00224021164800F041FC24E0CB
:1005EC0000220121134800F03BFC0022022111489B
:1005FC0000F036FC002204210E4800F031FC0022F1
:10060C0008210C4800F02CFC01221021094800F0B4
:10061C0027FC00222021074800F022FC0022402168
:10062C00044800F01DFC00E000BF00BF0837BD46C9
:10063C0080BD00BF000C014080B582B000AF786077
:10064C00484B1B680133474A1360464B1B68C72B4A
:10065C0006DD444B00221A602021434800F018FCB0
:10066C00404B1B68312B1DD1002240213E4800F02D
:10067C00F7FB012280213C4800F0F2FB01224FF4F1
:10068C008071394800F0ECFB01224FF400713648C0
:10069C0000F0E6FB0120FFF73FFE0022102132485C
:1006AC0000F0DEFB2F4B1B68632B18D1012240217D
:1006BC002D4800F0D5FB002280212B4800F0D0FB08
:1006CC0001224FF48071284800F0CAFB01224FF43C
:1006DC000071254800F0C4FB0220FFF71DFE214BE2
:1006EC001B68952B1DD1012240211F4800F0B8FB3F
:1006FC00012280211C4800F0B3FB00224FF48071D2
:10070C00194800F0ADFB01224FF40071164800F0BF
:10071C00A7FB0320FFF700FE01221021124800F076
:10072C009FFB104B1B68C72B18D1012240210E4890
:10073C0000F096FB012280210B4800F091FB012276
:10074C004FF48071084800F08BFB00224FF40071CD
:10075C00054800F085FB0020FFF7DEFD00BF0837E1
:10076C00BD4680BD280000200008014080B400AFC9
:10077C0072B6FEE780B485B000AF154B9B69144A86
:10078C0043F001039361124B9B6903F00103BB60BF
:10079C00BB680F4BDB690E4A43F08053D3610C4BA3
:1007AC00DB6903F080537B607B680A4B5B68FB6002
:1007BC00FB6823F0E063FB60FB6843F08063FB6045
:1007CC00044AFB68536000BF1437BD4680BC7047B9
:1007DC00001002400000014080B584B000AF78608A
:1007EC007B681B68B3F1804F13D10C4BDB690B4A50
:1007FC0043F00103D361094BDB6903F00103FB6098
:10080C00FB68002200211C2000F0A1F91C2000F044
:10081C00BAF900BF1037BD4680BD00BF00100240C2
:10082C0080B400AFFEE780B400AFFEE780B400AF49
:10083C00FEE780B400AFFEE780B400AFFEE780B403
:10084C0000AF00BFBD4680BC704780B400AF00BF96
:10085C00BD4680BC704780B400AF00BFBD4680BCB5
:10086C00704780B500AF00F07FF800BF80BD00007E
:10087C0080B500AF024800F0ABFF00BF80BD00BFE9
:10088C002C00002080B400AF00BFBD4680BC704778
:10089C000C480D490D4A002302E0D458C4500433CF
:1008AC00C4188C42F9D30A4A0A4C002301E01360A5
:1008BC000432A242FBD3FFF7E5FF01F0C5FAFFF7C4
:1008CC003FFC7047000000200C000020F01E0008C8
:1008DC000C00002078000020FEE7000080B500AF7F
:1008EC00084B1B68074A43F010031360032000F009
:1008FC0023F9002000F008F8FFF73CFF002318460E
:10090C0080BD00BF0020024080B582B000AF78608F
:10091C00124B1A68124B1B7819464FF47A73B3FBBF
:10092C00F1F3B2FBF3F3184600F03BF90346002B4E
:10093C0001D001230EE07B680F2B0AD800227968C6
:10094C004FF0FF3000F003F9064A7B681360002378
:10095C0000E0012318460837BD4680BD000000208A
:10096C00080000200400002080B400AF054B1B7869
:10097C001A46054B1B681344034A136000BFBD465F
:10098C0080BC7047080000207400002080B400AFC9
:10099C00024B1B681846BD4680BC70477400002093
:1009AC0080B485B000AF78607B6803F00703FB6010
:1009BC000C4BDB68BB60BA684FF6FF031340BB609F
:1009CC00FB681A02BB68134343F0BF6343F4003364
:1009DC00BB60044ABB68D36000BF1437BD4680BC03
:1009EC00704700BF00ED00E080B400AF044BDB6843
:1009FC001B0A03F007031846BD4680BC704700BFB6
:100A0C0000ED00E080B483B000AF0346FB7197F9B2
:100A1C000730002B0BDBFB7903F01F02064997F91B
:100A2C0007305B09012000FA02F241F8232000BFD5
:100A3C000C37BD4680BC704700E100E080B483B049
:100A4C0000AF03463960FB7197F90730002B0ADBC6
:100A5C003B68DAB20C4997F907301201D2B20B4459
:100A6C0083F800230AE03B68DAB20849FB7903F00B
:100A7C000F03043B1201D2B20B441A7600BF0C37A1
:100A8C00BD4680BC704700BF00E100E000ED00E017
:100A9C0080B489B000AFF860B9607A60FB6803F08D
:100AAC000703FB61FB69C3F10703042B28BF042375
:100ABC00BB61FB690433062B02D9FB69033B00E0E5
:100ACC0000237B614FF0FF32BB6902FA03F3DA4378
:100ADC00BB681A407B699A404FF0FF317B6901FA81
:100AEC0003F3D9437B680B40134318462437BD46A8
:100AFC0080BC704780B582B000AF78607B68013BEA
:100B0C00B3F1807F01D301230FE00A4A7B68013BDC
:100B1C0053600F214FF0FF30FFF790FF054B002281
:100B2C009A60044B07221A60002318460837BD460A
:100B3C0080BD00BF10E000E080B582B000AF7860EF
:100B4C007868FFF72DFF00BF0837BD4680BD80B524
:100B5C0086B000AF0346B9607A60FB7300237B61FB
:100B6C00FFF742FF78617A68B9687869FFF790FF00
:100B7C00024697F90F3011461846FFF75FFF00BF8A
:100B8C001837BD4680BD80B582B000AF0346FB71FF
:100B9C0097F907301846FFF735FF00BF0837BD46F9
:100BAC0080BD80B582B000AF78607868FFF7A2FF97
:100BBC00034618460837BD4680BD000080B48BB094
:100BCC0000AF7860396000237B6200233B6221E137
:100BDC0001227B6A02FA03F3FB613B681B68FA692A
:100BEC001340BB61BA69FB699A4240F010813B68C3
:100BFC005B68122B34D0122B0DD8022B2BD0022B6E
:100C0C0004D8002B31D0012B1CD048E0032B43D04F
:100C1C00112B1BD043E0864A934226D0844A934240
:100C2C0006D8844A934220D0834A93421DD036E0A2
:100C3C00824A934219D0824A934216D0814A9342F7
:100C4C0013D02CE03B68DB683B6228E03B68DB6838
:100C5C0004333B6223E03B68DB6808333B621EE0F5
:100C6C003B68DB680C333B6219E03B689B68002BEC
:100C7C0002D104233B6212E03B689B68012B05D137
:100C8C0008233B627B68FA691A6108E008233B621F
:100C9C007B68FA695A6102E000233B6200BFBB69C2
:100CAC00FF2B01D87B6801E07B6804337B61BB6957
:100CBC00FF2B02D87B6A9B0002E07B6A083B9B00FF
:100CCC003B617B691A680F213B6901FA03F3DB4333
:100CDC001A40396A3B6901FA03F31A437B691A60BB
:100CEC003B685B6803F08053002B00F09080564B00
:100CFC009B69554A43F001039361534B9B6903F085
:100D0C000103BB60BB68514A7B6A9B08023352F8F3
:100D1C002330FB607B6A03F003039B000F2202FA73
:100D2C0003F3DB43FA681340FB607B68484A934249
:100D3C000DD07B68474A934207D07B68464A934262
:100D4C0001D1022304E0032302E0012300E000238D
:100D5C007A6A02F0030292009340FA681343FB6034
:100D6C003A497B6A9B080233FA6841F823203B68B6
:100D7C005B6803F48033002B06D0384B1A68374974
:100D8C00BB6913430B6006E0344B1A68BB69DB4349
:100D9C00324913400B603B685B6803F40033002B53
:100DAC0006D02E4B5A682D49BB6913434B6006E0A5
:100DBC002A4B5A68BB69DB43284913404B603B689C
:100DCC005B6803F48013002B06D0244B9A682349EC
:100DDC00BB6913438B6006E0204B9A68BB69DB430D
:100DEC001E4913408B603B685B6803F40013002BB7
:100DFC0006D01A4BDA681949BB691343CB6006E07D
:100E0C00164BDA68BB69DB4314491340CB607B6A31
:100E1C0001337B623B681A687B6A22FA03F3002B6E
:100E2C007FF4D6AE00BF2C37BD4680BC704700BFE8
:100E3C0000002110000011100000121000003110F1
:100E4C00000032100000221000100240000001408F
:100E5C0000080140000C014000100140000401405A
:100E6C0080B483B000AF78600B467B8013467B70F8
:100E7C007B78002B03D07A887B681A6103E07B882F
:100E8C001A047B681A6100BF0C37BD4680BC7047E2
:100E9C0080B485B000AF78600B467B807B68DB68E4
:100EAC00FB607A88FB6813401A04FB68D9437B8883
:100EBC000B401A437B681A6100BF1437BD4680BCD7
:100ECC007047000080B586B000AF78607B68002B5F
:100EDC0001D101236CE27B681B6803F00103002B3A
:100EEC0000F08780924B5B6803F00C03042B0CD052
:100EFC008F4B5B6803F00C03082B12D18C4B5B6897
:100F0C0003F48033B3F5803F0BD1894B1B6803F49A
:100F1C000033002B6CD07B685B68002B68D10123FD
:100F2C0046E27B685B68B3F5803F06D1804B1B685B
:100F3C007F4A43F4803313602EE07B685B68002BA0
:100F4C000CD17B4B1B687A4A23F480331360784BAB
:100F5C001B68774A23F4802313601DE07B685B6871
:100F6C00B3F5A02F0CD1724B1B68714A43F480234C
:100F7C0013606F4B1B686E4A43F4803313600BE0B5
:100F8C006B4B1B686A4A23F480331360684B1B68F5
:100F9C00674A23F4802313607B685B68002B13D0B3
:100FAC00FFF7F4FC386108E0FFF7F0FC02463B6900
:100FBC00D31A642B01D90323FAE15D4B1B6803F4AC
:100FCC000033002BF0D014E0FFF7E0FC386108E0B0
:100FDC00FFF7DCFC02463B69D31A642B01D90323CF
:100FEC00E6E1534B1B6803F40033002BF0D100E017
:100FFC0000BF7B681B6803F00203002B63D04C4BD3
:10100C005B6803F00C03002B0BD0494B5B6803F0BF
:10101C000C03082B1CD1464B5B6803F48033002B6C
:10102C0016D1434B1B6803F00203002B05D07B68E1
:10103C001B69012B01D00123BAE13D4B1B6823F046
:10104C00F8027B685B69DB00394913430B603AE0BB
:10105C007B681B69002B20D0364B01221A60FFF7EE
:10106C0095FC386108E0FFF791FC02463B69D31A06
:10107C00022B01D903239BE12D4B1B6803F00203C8
:10108C00002BF0D02A4B1B6823F0F8027B685B69BD
:10109C00DB00274913430B6015E0264B00221A6036
:1010AC00FFF774FC386108E0FFF770FC02463B69FF
:1010BC00D31A022B01D903237AE11D4B1B6803F0D1
:1010CC000203002BF0D17B681B6803F00803002B94
:1010DC003AD07B689B69002B19D0174B01221A6000
:1010EC00FFF754FC386108E0FFF750FC02463B69FF
:1010FC00D31A022B01D903235AE10D4B5B6A03F07F
:10110C000203002BF0D0012000F0A8FA1CE00A4BDF
:10111C0000221A60FFF73AFC38610FE0FFF736FC4B
:10112C0002463B69D31A022B08D9032340E100BFC6
:10113C000010024000004242800442429E4B5B6A17
:10114C0003F00203002BE9D17B681B6803F0040356
:10115C00002B00F0A6800023FB75974BDB6903F096
:10116C008053002B0DD1944BDB69934A43F0805391
:10117C00D361914BDB6903F08053BB60BB680123E7
:10118C00FB758E4B1B6803F48073002B18D18B4BB3
:10119C001B688A4A43F480731360FFF7F7FB3861CE
:1011AC0008E0FFF7F3FB02463B69D31A642B01D925
:1011BC000323FDE0814B1B6803F48073002BF0D0FC
:1011CC007B68DB68012B06D17B4B1B6A7A4A43F0A8
:1011DC00010313622DE07B68DB68002B0CD1764B8E
:1011EC001B6A754A23F001031362734B1B6A724A24
:1011FC0023F0040313621CE07B68DB68052B0CD125
:10120C006D4B1B6A6C4A43F0040313626A4B1B6AF6
:10121C00694A43F0010313620BE0674B1B6A664A91
:10122C0023F001031362644B1B6A634A23F004032B
:10123C0013627B68DB68002B15D0FFF7A7FB3861C6
:10124C000AE0FFF7A3FB02463B69D31A41F288324E
:10125C00934201D90323ABE0574B1B6A03F0020303
:10126C00002BEED014E0FFF791FB38610AE0FFF79A
:10127C008DFB02463B69D31A41F28832934201D965
:10128C00032395E04C4B1B6A03F00203002BEED1B9
:10129C00FB7D012B05D1484BDB69474A23F080537A
:1012AC00D3617B68DB69002B00F08180424B5B686B
:1012BC0003F00C03082B61D07B68DB69022B46D151
:1012CC003F4B00221A60FFF761FB386108E0FFF723
:1012DC005DFB02463B69D31A022B01D9032367E05D
:1012EC00354B1B6803F00073002BF0D17B681B6A35
:1012FC00B3F5803F08D1304B5B6823F400327B6838
:10130C009B682D4913434B602B4B5B6823F4741281
:10131C007B68196A7B685B6A0B43274913434B60F4
:10132C00274B01221A60FFF731FB386108E0FFF709
:10133C002DFB02463B69D31A022B01D9032337E05C
:10134C001D4B1B6803F00073002BF0D02FE01C4BDF
:10135C0000221A60FFF71AFB386108E0FFF716FB52
:10136C0002463B69D31A022B01D9032320E0124B0E
:10137C001B6803F00073002BF0D118E07B68DB696D
:10138C00012B01D1012313E00B4B5B68FB60FB6865
:10139C0003F480327B681B6A9A4206D1FB6803F423
:1013AC0070127B685B6A9A4201D0012300E0002333
:1013BC0018461837BD4680BD001002400070004032
:1013CC006000424280B584B000AF786039607B68C1
:1013DC00002B01D10123D0E06A4B1B6803F00703FB
:1013EC003A689A4210D9674B1B6823F0070265498B
:1013FC003B6813430B60634B1B6803F007033A68AD
:10140C009A4201D00123B8E07B681B6803F0020309
:10141C00002B20D07B681B6803F00403002B05D045
:10142C00594B5B68584A43F4E06353607B681B6814
:10143C0003F00803002B05D0534B5B68524A43F46E
:10144C0060535360504B5B6823F0F0027B689B68E1
:10145C004D4913434B607B681B6803F00103002B61
:10146C0040D07B685B68012B07D1474B1B6803F4AA
:10147C000033002B15D101237FE07B685B68022BC6
:10148C0007D1414B1B6803F00073002B09D10123DA
:10149C0073E03D4B1B6803F00203002B01D10123C9
:1014AC006BE0394B5B6823F003027B685B68364961
:1014BC0013434B60FFF76AFAF8600AE0FFF766FA2D
:1014CC000246FB68D31A41F28832934201D90323B6
:1014DC0053E02D4B5B6803F00C027B685B689B0050
:1014EC009A42EBD1274B1B6803F007033A689A42E8
:1014FC0010D2244B1B6823F0070222493B6813438C
:10150C000B60204B1B6803F007033A689A4201D02A
:10151C00012332E07B681B6803F00403002B08D026
:10152C00194B5B6823F4E0627B68DB681649134354
:10153C004B607B681B6803F00803002B09D0124B2F
:10154C005B6823F460527B681B69DB000E49134314
:10155C004B6000F021F801460B4B5B681B0903F054
:10156C000F030A4AD35C21FA03F3094A1360094BAF
:10157C001B681846FFF7C8F9002318461037BD46FC
:10158C0080BD00BF0020024000100240D81E0008A1
:10159C00000000200400002090B48AB000AF2A4B59
:1015AC003C1D0FCB84E80F00284B1B883B8000238D
:1015BC00FB610023BB6100237B6200237B61002362
:1015CC003B62234B5B68FB61FB6903F00C03042B50
:1015DC0002D0082B03D02DE01E4B3B622DE0FB69A3
:1015EC009B0C03F00F0307F12802134413F8243C5F
:1015FC007B61FB6903F48033002B13D0144B5B68C5
:10160C005B0C03F0010307F12802134413F8283C88
:10161C00BB617B690F4A02FB03F2BB69B2FBF3F3BC
:10162C007B6204E07B690C4A02FB03F37B627B6AFE
:10163C003B6202E0074B3B6200BF3B6A184628370F
:10164C00BD4690BC704700BFC41E0008D41E0008E5
:10165C000010024000127A0000093D0080B485B0F1
:10166C0000AF78600A4B1B680A4AA2FB03235B0A93
:10167C007A6802FB03F3FB6000BFFB685A1EFA603A
:10168C00002BF9D100BF1437BD4680BC704700BF9A
:10169C0000000020D34D621080B582B000AF78609E
:1016AC007B68002B01D1012341E07B6893F83D302E
:1016BC00DBB2002B06D17B68002283F83C207868D3
:1016CC00FFF78AF87B68022283F83D207B681A6852
:1016DC007B6804331946104600F05EFA7B680122E1
:1016EC0083F846207B68012283F83E207B68012228
:1016FC0083F83F207B68012283F840207B6801221D
:10170C0083F841207B68012283F842207B68012208
:10171C0083F843207B68012283F844207B680122F4
:10172C0083F845207B68012283F83D20002318466E
:10173C000837BD4680BD000080B485B000AF78602E
:10174C007B6893F83D30DBB2012B01D0012335E0EF
:10175C007B68022283F83D207B681B68DA687B6813
:10176C001B6842F00102DA607B681B68164A9342E0
:10177C0009D07B681B68B3F1804F04D07B681B6871
:10178C00124A934211D17B681B689B6803F00703D4
:10179C00FB60FB68062B10D07B681B681A687B68A3
:1017AC001B6842F001021A6007E07B681B681A682C
:1017BC007B681B6842F001021A600023184614373C
:1017CC00BD4680BC704700BF002C014000040040A7
:1017DC0080B582B000AF78607B681B681B6903F032
:1017EC000203022B22D17B681B68DB6803F0020327
:1017FC00022B1BD17B681B686FF002021A617B689D
:10180C0001221A777B681B689B6903F00303002B8A
:10181C0003D0786800F0A4F905E0786800F097F937
:10182C00786800F0A6F97B6800221A777B681B6841
:10183C001B6903F00403042B22D17B681B68DB6853
:10184C0003F00403042B1BD17B681B686FF00402AC
:10185C001A617B6802221A777B681B689B6903F408
:10186C004073002B03D0786800F07AF905E07868B3
:10187C0000F06DF9786800F07CF97B6800221A772B
:10188C007B681B681B6903F00803082B22D17B685B
:10189C001B68DB6803F00803082B1BD17B681B68F3
:1018AC006FF008021A617B6804221A777B681B6848
:1018BC00DB6903F00303002B03D0786800F050F9C8
:1018CC0005E0786800F043F9786800F052F97B681D
:1018DC0000221A777B681B681B6903F01003102B1E
:1018EC0022D17B681B68DB6803F01003102B1BD123
:1018FC007B681B686FF010021A617B6808221A77EC
:10190C007B681B68DB6903F44073002B03D0786899
:10191C0000F026F905E0786800F019F9786800F015
:10192C0028F97B6800221A777B681B681B6903F017
:10193C000103012B0ED17B681B68DB6803F00103EC
:10194C00012B07D17B681B686FF001021A61786864
:10195C00FEF772FE7B681B681B6903F08003802B0B
:10196C000ED17B681B68DB6803F08003802B07D1EA
:10197C007B681B686FF080021A61786800F05BFA74
:10198C007B681B681B6903F04003402B0ED17B68FE
:10199C001B68DB6803F04003402B07D17B681B6896
:1019AC006FF040021A61786800F0ECF87B681B68F5
:1019BC001B6903F02003202B0ED17B681B68DB68AE
:1019CC0003F02003202B07D17B681B686FF02002EB
:1019DC001A61786800F026FA00BF0837BD4680BD52
:1019EC0080B584B000AF786039607B6893F83C3088
:1019FC00012B01D10223A6E07B68012283F83C2055
:101A0C007B68022283F83D207B681B689B68FB6027
:101A1C00FB6823F07703FB60FB6823F47F43FB60D8
:101A2C007B681B68FA689A603B681B68402B67D020
:101A3C00402B0BD8102B73D0102B02D8002B6FD04F
:101A4C0078E0202B6CD0302B6AD073E0702B0DD04B
:101A5C00702B04D8502B33D0602B41D06AE0B3F5F7
:101A6C00805F66D0B3F5005F17D063E07B681868C1
:101A7C003B6899683B685A683B68DB6800F05BF927
:101A8C007B681B689B68FB60FB6843F07703FB601B
:101A9C007B681B68FA689A604CE07B6818683B6846
:101AAC0099683B685A683B68DB6800F044F97B68CE
:101ABC001B689A687B681B6842F480429A6039E024
:101ACC007B6818683B6859683B68DB681A4600F00D
:101ADC00BBF87B681B685021184600F012F929E00E
:101AEC007B6818683B6859683B68DB681A4600F0ED
:101AFC00D9F87B681B686021184600F002F919E0E0
:101B0C007B6818683B6859683B68DB681A4600F0CC
:101B1C009BF87B681B684021184600F0F2F809E03E
:101B2C007B681A683B681B681946104600F0E9F898
:101B3C0000E000BF7B68012283F83D207B68002217
:101B4C0083F83C20002318461037BD4680BD80B476
:101B5C0083B000AF786000BF0C37BD4680BC7047C7
:101B6C0080B483B000AF786000BF0C37BD4680BC3A
:101B7C00704780B483B000AF786000BF0C37BD46AF
:101B8C0080BC704780B483B000AF786000BF0C3766
:101B9C00BD4680BC7047000080B485B000AF786053
:101BAC0039607B681B68FB607B68254A934207D0D1
:101BBC007B68B3F1804F03D07B68224A934208D1F3
:101BCC00FB6823F07003FB603B685B68FA681343A7
:101BDC00FB607B681A4A934207D07B68B3F1804F55
:101BEC0003D07B68174A934208D1FB6823F44073F7
:101BFC00FB603B68DB68FA681343FB60FB6823F00F
:101C0C0080023B685B691343FB607B68FA681A606F
:101C1C003B689A687B68DA623B681A687B689A62F0
:101C2C007B68074A934203D13B681A697B681A6345
:101C3C007B6801225A6100BF1437BD4680BC7047D7
:101C4C00002C01400004004080B487B000AFF86065
:101C5C00B9607A60FB681B6A7B61FB681B6A23F0C6
:101C6C000102FB681A62FB689B693B613B6923F0CC
:101C7C00F0033B617B681B013A6913433B617B6951
:101C8C0023F00A037B617A69BB6813437B61FB68B1
:101C9C003A699A61FB687A691A6200BF1C37BD46C3
:101CAC0080BC704780B487B000AFF860B9607A60D0
:101CBC00FB681B6A23F01002FB681A62FB689B69C5
:101CCC007B61FB681B6A3B617B6923F470437B611E
:101CDC007B681B037A6913437B613B6923F0A00388
:101CEC003B61BB681B013A6913433B61FB687A6932
:101CFC009A61FB683A691A6200BF1C37BD4680BC0A
:101D0C00704780B485B000AF786039607B689B68A1
:101D1C00FB60FB6823F07003FB603A68FB681343BD
:101D2C0043F00703FB607B68FA689A6000BF1437C6
:101D3C00BD4680BC704780B487B000AFF860B96016
:101D4C007A603B60FB689B687B617B6923F47F4313
:101D5C007B613B681A027B681A43BB6813437A6940
:101D6C0013437B61FB687A699A6000BF1C37BD46E0
:101D7C0080BC704780B485B000AF786039607B68F8
:101D8C0093F83C30012B01D1022341E07B68012206
:101D9C0083F83C207B68022283F83D207B681B681B
:101DAC005B68FB607B681B689B68BB60FB6823F00F
:101DBC007003FB603B681B68FA681343FB607B682D
:101DCC001B68FA685A607B681B68144A934209D0F6
:101DDC007B681B68B3F1804F04D07B681B68104A8A
:101DEC0093420CD1BB6823F08003BB603B685B68FB
:101DFC00BA681343BB607B681B68BA689A607B68DF
:101E0C00012283F83D207B68002283F83C200023CC
:101E1C0018461437BD4680BC704700BF002C0140EB
:101E2C000004004080B483B000AF786000BF0C3772
:101E3C00BD4680BC704780B483B000AF786000BFF3
:101E4C000C37BD4680BC704770B500250C4E0D4C50
:101E5C00A41BA410A54209D100F022F800250A4EBB
:101E6C000A4CA41BA410A54205D170BD56F8253010
:101E7C0098470135EEE756F8253098470135F2E7DB
:101E8C00E81E0008E81E0008E81E0008EC1E00080A
:101E9C0003460244934200D1704703F8011BF9E753
:101EAC00F8B500BFF8BC08BC9E467047F8B500BF3B
:081EBC00F8BC08BC9E4670470B
:101EC40002030405060708090A0B0C0D0E0F101077
:101ED40001020000000000000000000001020304F1
:041EE40006070809DC
:041EE80031010008BC
:041EEC000D010008DC
:0C1EF0000024F4001000000001000000BD
:040000050800089D4A
:00000001FF
